{
  "_format": "hh-sol-artifact-1",
  "contractName": "MiMarketplace",
  "sourceName": "contracts/MiMarketplace.sol",
  "abi": [
    {
      "inputs": [
        {
          "internalType": "address",
          "name": "_nftContractAddress",
          "type": "address"
        },
        {
          "internalType": "address",
          "name": "_erc20TokenAddress",
          "type": "address"
        }
      ],
      "stateMutability": "nonpayable",
      "type": "constructor"
    },
    {
      "inputs": [
        {
          "internalType": "address",
          "name": "owner",
          "type": "address"
        }
      ],
      "name": "OwnableInvalidOwner",
      "type": "error"
    },
    {
      "inputs": [
        {
          "internalType": "address",
          "name": "account",
          "type": "address"
        }
      ],
      "name": "OwnableUnauthorizedAccount",
      "type": "error"
    },
    {
      "anonymous": false,
      "inputs": [
        {
          "indexed": true,
          "internalType": "address",
          "name": "beneficiary",
          "type": "address"
        },
        {
          "indexed": false,
          "internalType": "uint256",
          "name": "amount",
          "type": "uint256"
        }
      ],
      "name": "FundsWithdrawn",
      "type": "event"
    },
    {
      "anonymous": false,
      "inputs": [
        {
          "indexed": true,
          "internalType": "uint256",
          "name": "tokenId",
          "type": "uint256"
        },
        {
          "indexed": true,
          "internalType": "address",
          "name": "buyer",
          "type": "address"
        },
        {
          "indexed": true,
          "internalType": "address",
          "name": "seller",
          "type": "address"
        },
        {
          "indexed": false,
          "internalType": "uint256",
          "name": "price",
          "type": "uint256"
        }
      ],
      "name": "NFTBought",
      "type": "event"
    },
    {
      "anonymous": false,
      "inputs": [
        {
          "indexed": true,
          "internalType": "uint256",
          "name": "tokenId",
          "type": "uint256"
        },
        {
          "indexed": true,
          "internalType": "address",
          "name": "seller",
          "type": "address"
        },
        {
          "indexed": false,
          "internalType": "uint256",
          "name": "price",
          "type": "uint256"
        }
      ],
      "name": "NFTListed",
      "type": "event"
    },
    {
      "anonymous": false,
      "inputs": [
        {
          "indexed": true,
          "internalType": "address",
          "name": "previousOwner",
          "type": "address"
        },
        {
          "indexed": true,
          "internalType": "address",
          "name": "newOwner",
          "type": "address"
        }
      ],
      "name": "OwnershipTransferred",
      "type": "event"
    },
    {
      "inputs": [
        {
          "internalType": "uint256",
          "name": "_tokenId",
          "type": "uint256"
        }
      ],
      "name": "buyNFT",
      "outputs": [],
      "stateMutability": "nonpayable",
      "type": "function"
    },
    {
      "inputs": [
        {
          "internalType": "uint256",
          "name": "_tokenId",
          "type": "uint256"
        }
      ],
      "name": "getListing",
      "outputs": [
        {
          "internalType": "address",
          "name": "seller",
          "type": "address"
        },
        {
          "internalType": "uint256",
          "name": "price",
          "type": "uint256"
        },
        {
          "internalType": "bool",
          "name": "isListed",
          "type": "bool"
        }
      ],
      "stateMutability": "view",
      "type": "function"
    },
    {
      "inputs": [
        {
          "internalType": "uint256",
          "name": "_tokenId",
          "type": "uint256"
        },
        {
          "internalType": "uint256",
          "name": "_price",
          "type": "uint256"
        }
      ],
      "name": "listNFT",
      "outputs": [],
      "stateMutability": "nonpayable",
      "type": "function"
    },
    {
      "inputs": [
        {
          "internalType": "uint256",
          "name": "",
          "type": "uint256"
        }
      ],
      "name": "listings",
      "outputs": [
        {
          "internalType": "address",
          "name": "seller",
          "type": "address"
        },
        {
          "internalType": "uint256",
          "name": "price",
          "type": "uint256"
        },
        {
          "internalType": "bool",
          "name": "isListed",
          "type": "bool"
        }
      ],
      "stateMutability": "view",
      "type": "function"
    },
    {
      "inputs": [],
      "name": "owner",
      "outputs": [
        {
          "internalType": "address",
          "name": "",
          "type": "address"
        }
      ],
      "stateMutability": "view",
      "type": "function"
    },
    {
      "inputs": [],
      "name": "renounceOwnership",
      "outputs": [],
      "stateMutability": "nonpayable",
      "type": "function"
    },
    {
      "inputs": [
        {
          "internalType": "address",
          "name": "",
          "type": "address"
        }
      ],
      "name": "salesProceeds",
      "outputs": [
        {
          "internalType": "uint256",
          "name": "",
          "type": "uint256"
        }
      ],
      "stateMutability": "view",
      "type": "function"
    },
    {
      "inputs": [
        {
          "internalType": "address",
          "name": "newOwner",
          "type": "address"
        }
      ],
      "name": "transferOwnership",
      "outputs": [],
      "stateMutability": "nonpayable",
      "type": "function"
    },
    {
      "inputs": [],
      "name": "withdrawProceeds",
      "outputs": [],
      "stateMutability": "nonpayable",
      "type": "function"
    }
  ],
  "bytecode": "0x60c060405234801561001057600080fd5b50604051610c72380380610c7283398101604081905261002f9161018f565b338061005657604051631e4fbdf760e01b8152600060048201526024015b60405180910390fd5b61005f81610123565b506001600160a01b0382166100b65760405162461bcd60e51b815260206004820152601660248201527f446972656363696f6e204e465420696e76616c69646100000000000000000000604482015260640161004d565b6001600160a01b03811661010c5760405162461bcd60e51b815260206004820152601860248201527f446972656363696f6e20455243323020696e76616c6964610000000000000000604482015260640161004d565b6001600160a01b039182166080521660a0526101c2565b600080546001600160a01b038381166001600160a01b0319831681178455604051919092169283917f8be0079c531659141344cd1fd0a4f28419497f9722a3daafe3b4186f6b6457e09190a35050565b80516001600160a01b038116811461018a57600080fd5b919050565b600080604083850312156101a257600080fd5b6101ab83610173565b91506101b960208401610173565b90509250929050565b60805160a051610a7d6101f560003960008181610313015261059001526000818161043701526106a50152610a7d6000f3fe608060405234801561001057600080fd5b50600436106100935760003560e01c80639038e693116100665780639038e6931461013b57806394383f1414610143578063de74e57b14610156578063f26c0af214610193578063f2fde38b146101c157600080fd5b8063107a274a1461009857806351ed828814610103578063715018a6146101185780638da5cb5b14610120575b600080fd5b6100d76100a636600461096d565b60009081526001602081905260409091208054918101546002909101546001600160a01b0390921692909160ff1690565b604080516001600160a01b03909416845260208401929092521515908201526060015b60405180910390f35b61011661011136600461096d565b6101d4565b005b6101166104e7565b6000546040516001600160a01b0390911681526020016100fa565b6101166104fb565b610116610151366004610986565b610685565b6100d761016436600461096d565b60016020819052600091825260409091208054918101546002909101546001600160a01b039092169160ff1683565b6101b36101a13660046109bd565b60026020526000908152604090205481565b6040519081526020016100fa565b6101166101cf3660046109bd565b6108b2565b60008181526001602052604090206002015460ff166102465760405162461bcd60e51b8152602060048201526024808201527f456c204e4654206e6f2065737461206c69737461646f2070617261206c612076604482015263656e746160e01b60648201526084015b60405180910390fd5b600081815260016020526040902054336001600160a01b03909116036102ae5760405162461bcd60e51b815260206004820152601f60248201527f4e6f2070756564657320636f6d707261722074752070726f70696f204e465400604482015260640161023d565b6000818152600160208190526040808320805492810180546001600160a01b031985168355908590556002909101805460ff1916905590516323b872dd60e01b8152336004820152306024820152604481018290526001600160a01b039283169391927f000000000000000000000000000000000000000000000000000000000000000016906323b872dd906064016020604051808303816000875af115801561035c573d6000803e3d6000fd5b505050506040513d601f19601f8201168201806040525081019061038091906109e1565b9050806103de5760405162461bcd60e51b815260206004820152602660248201527f46616c6c6f206c61207472616e73666572656e63696120646520746f6b656e7360448201526502045524332360d41b606482015260840161023d565b6001600160a01b03831660009081526002602052604081208054849290610406908490610a03565b90915550506040516323b872dd60e01b81526001600160a01b038481166004830152336024830152604482018690527f000000000000000000000000000000000000000000000000000000000000000016906323b872dd90606401600060405180830381600087803b15801561047b57600080fd5b505af115801561048f573d6000803e3d6000fd5b50505050826001600160a01b0316336001600160a01b0316857fc55254892a1711b67c27fcc61c33145acd745d88047198774c9f479bd2fab72e856040516104d991815260200190565b60405180910390a450505050565b6104ef6108f0565b6104f9600061091d565b565b33600090815260026020526040902054806105585760405162461bcd60e51b815260206004820152601f60248201527f4e6f207469656e65732067616e616e6369617320706f72207265746972617200604482015260640161023d565b336000818152600260205260408082208290555163a9059cbb60e01b8152600481019290925260248201839052906001600160a01b037f0000000000000000000000000000000000000000000000000000000000000000169063a9059cbb906044016020604051808303816000875af11580156105d9573d6000803e3d6000fd5b505050506040513d601f19601f820116820180604052508101906105fd91906109e1565b90508061064c5760405162461bcd60e51b815260206004820152601c60248201527f46616c6c6f20656c2072657469726f2064652067616e616e6369617300000000604482015260640161023d565b60405182815233907feaff4b37086828766ad3268786972c0cd24259d4c87a80f9d3963a3c3d999b0d9060200160405180910390a25050565b6040516331a9108f60e11b81526004810183905233906001600160a01b037f00000000000000000000000000000000000000000000000000000000000000001690636352211e90602401602060405180830381865afa1580156106ec573d6000803e3d6000fd5b505050506040513d601f19601f820116820180604052508101906107109190610a2a565b6001600160a01b0316146107665760405162461bcd60e51b815260206004820152601e60248201527f4e6f206572657320656c2070726f706965746172696f2064656c204e46540000604482015260640161023d565b600081116107c05760405162461bcd60e51b815260206004820152602160248201527f456c2070726563696f206465626520736572206d61796f7220717565206365726044820152606f60f81b606482015260840161023d565b60008281526001602052604090206002015460ff161561081b5760405162461bcd60e51b8152602060048201526016602482015275456c204e46542079612065737461206c69737461646f60501b604482015260640161023d565b6040805160608101825233808252602080830185815260018486018181526000898152828552879020955186546001600160a01b0319166001600160a01b03909116178655915190850155516002909301805460ff191693151593909317909255915183815284917f5f9c03de076f5063cd3ebcfe8ef7aa8af378e4b35a83c77ba9777e97083879a2910160405180910390a35050565b6108ba6108f0565b6001600160a01b0381166108e457604051631e4fbdf760e01b81526000600482015260240161023d565b6108ed8161091d565b50565b6000546001600160a01b031633146104f95760405163118cdaa760e01b815233600482015260240161023d565b600080546001600160a01b038381166001600160a01b0319831681178455604051919092169283917f8be0079c531659141344cd1fd0a4f28419497f9722a3daafe3b4186f6b6457e09190a35050565b60006020828403121561097f57600080fd5b5035919050565b6000806040838503121561099957600080fd5b50508035926020909101359150565b6001600160a01b03811681146108ed57600080fd5b6000602082840312156109cf57600080fd5b81356109da816109a8565b9392505050565b6000602082840312156109f357600080fd5b815180151581146109da57600080fd5b80820180821115610a2457634e487b7160e01b600052601160045260246000fd5b92915050565b600060208284031215610a3c57600080fd5b81516109da816109a856fea26469706673582212207d87e4796f50a10a5a9a9ff50557a417e5cca3e7228ab87f0e5413cfd11f47ea64736f6c63430008140033",
  "linkReferences": {},
  "deployedLinkReferences": {}
}