{
  "_format": "hh-sol-artifact-1",
  "contractName": "MiTokenERC20",
  "sourceName": "contracts/MiTokenERC20.sol",
  "abi": [
    {
      "inputs": [],
      "stateMutability": "nonpayable",
      "type": "constructor"
    },
    {
      "inputs": [
        {
          "internalType": "address",
          "name": "spender",
          "type": "address"
        },
        {
          "internalType": "uint256",
          "name": "allowance",
          "type": "uint256"
        },
        {
          "internalType": "uint256",
          "name": "needed",
          "type": "uint256"
        }
      ],
      "name": "ERC20InsufficientAllowance",
      "type": "error"
    },
    {
      "inputs": [
        {
          "internalType": "address",
          "name": "sender",
          "type": "address"
        },
        {
          "internalType": "uint256",
          "name": "balance",
          "type": "uint256"
        },
        {
          "internalType": "uint256",
          "name": "needed",
          "type": "uint256"
        }
      ],
      "name": "ERC20InsufficientBalance",
      "type": "error"
    },
    {
      "inputs": [
        {
          "internalType": "address",
          "name": "approver",
          "type": "address"
        }
      ],
      "name": "ERC20InvalidApprover",
      "type": "error"
    },
    {
      "inputs": [
        {
          "internalType": "address",
          "name": "receiver",
          "type": "address"
        }
      ],
      "name": "ERC20InvalidReceiver",
      "type": "error"
    },
    {
      "inputs": [
        {
          "internalType": "address",
          "name": "sender",
          "type": "address"
        }
      ],
      "name": "ERC20InvalidSender",
      "type": "error"
    },
    {
      "inputs": [
        {
          "internalType": "address",
          "name": "spender",
          "type": "address"
        }
      ],
      "name": "ERC20InvalidSpender",
      "type": "error"
    },
    {
      "anonymous": false,
      "inputs": [
        {
          "indexed": true,
          "internalType": "address",
          "name": "owner",
          "type": "address"
        },
        {
          "indexed": true,
          "internalType": "address",
          "name": "spender",
          "type": "address"
        },
        {
          "indexed": false,
          "internalType": "uint256",
          "name": "value",
          "type": "uint256"
        }
      ],
      "name": "Approval",
      "type": "event"
    },
    {
      "anonymous": false,
      "inputs": [
        {
          "indexed": true,
          "internalType": "address",
          "name": "from",
          "type": "address"
        },
        {
          "indexed": true,
          "internalType": "address",
          "name": "to",
          "type": "address"
        },
        {
          "indexed": false,
          "internalType": "uint256",
          "name": "value",
          "type": "uint256"
        }
      ],
      "name": "Transfer",
      "type": "event"
    },
    {
      "inputs": [],
      "name": "INITIAL_SUPPLY",
      "outputs": [
        {
          "internalType": "uint256",
          "name": "",
          "type": "uint256"
        }
      ],
      "stateMutability": "view",
      "type": "function"
    },
    {
      "inputs": [
        {
          "internalType": "address",
          "name": "owner",
          "type": "address"
        },
        {
          "internalType": "address",
          "name": "spender",
          "type": "address"
        }
      ],
      "name": "allowance",
      "outputs": [
        {
          "internalType": "uint256",
          "name": "",
          "type": "uint256"
        }
      ],
      "stateMutability": "view",
      "type": "function"
    },
    {
      "inputs": [
        {
          "internalType": "address",
          "name": "spender",
          "type": "address"
        },
        {
          "internalType": "uint256",
          "name": "value",
          "type": "uint256"
        }
      ],
      "name": "approve",
      "outputs": [
        {
          "internalType": "bool",
          "name": "",
          "type": "bool"
        }
      ],
      "stateMutability": "nonpayable",
      "type": "function"
    },
    {
      "inputs": [
        {
          "internalType": "address",
          "name": "account",
          "type": "address"
        }
      ],
      "name": "balanceOf",
      "outputs": [
        {
          "internalType": "uint256",
          "name": "",
          "type": "uint256"
        }
      ],
      "stateMutability": "view",
      "type": "function"
    },
    {
      "inputs": [],
      "name": "decimals",
      "outputs": [
        {
          "internalType": "uint8",
          "name": "",
          "type": "uint8"
        }
      ],
      "stateMutability": "view",
      "type": "function"
    },
    {
      "inputs": [],
      "name": "name",
      "outputs": [
        {
          "internalType": "string",
          "name": "",
          "type": "string"
        }
      ],
      "stateMutability": "view",
      "type": "function"
    },
    {
      "inputs": [],
      "name": "symbol",
      "outputs": [
        {
          "internalType": "string",
          "name": "",
          "type": "string"
        }
      ],
      "stateMutability": "view",
      "type": "function"
    },
    {
      "inputs": [],
      "name": "totalSupply",
      "outputs": [
        {
          "internalType": "uint256",
          "name": "",
          "type": "uint256"
        }
      ],
      "stateMutability": "view",
      "type": "function"
    },
    {
      "inputs": [
        {
          "internalType": "address",
          "name": "to",
          "type": "address"
        },
        {
          "internalType": "uint256",
          "name": "value",
          "type": "uint256"
        }
      ],
      "name": "transfer",
      "outputs": [
        {
          "internalType": "bool",
          "name": "",
          "type": "bool"
        }
      ],
      "stateMutability": "nonpayable",
      "type": "function"
    },
    {
      "inputs": [
        {
          "internalType": "address",
          "name": "from",
          "type": "address"
        },
        {
          "internalType": "address",
          "name": "to",
          "type": "address"
        },
        {
          "internalType": "uint256",
          "name": "value",
          "type": "uint256"
        }
      ],
      "name": "transferFrom",
      "outputs": [
        {
          "internalType": "bool",
          "name": "",
          "type": "bool"
        }
      ],
      "stateMutability": "nonpayable",
      "type": "function"
    }
  ],
  "bytecode": "0x60806040523480156200001157600080fd5b506040518060400160405280600881526020016726b4902a37b5b2b760c11b815250604051806040016040528060048152602001634d49544b60e01b8152508160039081620000619190620002af565b506004620000708282620002af565b5050506200008f3369d3c21bcecceda10000006200009560201b60201c565b620003a3565b6001600160a01b038216620000c55760405163ec442f0560e01b8152600060048201526024015b60405180910390fd5b620000d360008383620000d7565b5050565b6001600160a01b03831662000106578060026000828254620000fa91906200037b565b909155506200017a9050565b6001600160a01b038316600090815260208190526040902054818110156200015b5760405163391434e360e21b81526001600160a01b03851660048201526024810182905260448101839052606401620000bc565b6001600160a01b03841660009081526020819052604090209082900390555b6001600160a01b0382166200019857600280548290039055620001b7565b6001600160a01b03821660009081526020819052604090208054820190555b816001600160a01b0316836001600160a01b03167fddf252ad1be2c89b69c2b068fc378daa952ba7f163c4a11628f55a4df523b3ef83604051620001fd91815260200190565b60405180910390a3505050565b634e487b7160e01b600052604160045260246000fd5b600181811c908216806200023557607f821691505b6020821081036200025657634e487b7160e01b600052602260045260246000fd5b50919050565b601f821115620002aa57600081815260208120601f850160051c81016020861015620002855750805b601f850160051c820191505b81811015620002a65782815560010162000291565b5050505b505050565b81516001600160401b03811115620002cb57620002cb6200020a565b620002e381620002dc845462000220565b846200025c565b602080601f8311600181146200031b5760008415620003025750858301515b600019600386901b1c1916600185901b178555620002a6565b600085815260208120601f198616915b828110156200034c578886015182559484019460019091019084016200032b565b50858210156200036b5787850151600019600388901b60f8161c191681555b5050505050600190811b01905550565b808201808211156200039d57634e487b7160e01b600052601160045260246000fd5b92915050565b61073d80620003b36000396000f3fe608060405234801561001057600080fd5b506004361061009e5760003560e01c8063313ce56711610066578063313ce5671461011a57806370a082311461012957806395d89b4114610152578063a9059cbb1461015a578063dd62ed3e1461016d57600080fd5b806306fdde03146100a3578063095ea7b3146100c157806318160ddd146100e457806323b872dd146100f65780632ff2e9dc14610109575b600080fd5b6100ab6101a6565b6040516100b89190610587565b60405180910390f35b6100d46100cf3660046105f1565b610238565b60405190151581526020016100b8565b6002545b6040519081526020016100b8565b6100d461010436600461061b565b610252565b6100e869d3c21bcecceda100000081565b604051601281526020016100b8565b6100e8610137366004610657565b6001600160a01b031660009081526020819052604090205490565b6100ab610276565b6100d46101683660046105f1565b610285565b6100e861017b366004610679565b6001600160a01b03918216600090815260016020908152604080832093909416825291909152205490565b6060600380546101b5906106ac565b80601f01602080910402602001604051908101604052809291908181526020018280546101e1906106ac565b801561022e5780601f106102035761010080835404028352916020019161022e565b820191906000526020600020905b81548152906001019060200180831161021157829003601f168201915b5050505050905090565b600033610246818585610293565b60019150505b92915050565b6000336102608582856102a5565b61026b858585610329565b506001949350505050565b6060600480546101b5906106ac565b600033610246818585610329565b6102a08383836001610388565b505050565b6001600160a01b03838116600090815260016020908152604080832093861683529290522054600019811015610323578181101561031457604051637dc7a0d960e11b81526001600160a01b038416600482015260248101829052604481018390526064015b60405180910390fd5b61032384848484036000610388565b50505050565b6001600160a01b03831661035357604051634b637e8f60e11b81526000600482015260240161030b565b6001600160a01b03821661037d5760405163ec442f0560e01b81526000600482015260240161030b565b6102a083838361045d565b6001600160a01b0384166103b25760405163e602df0560e01b81526000600482015260240161030b565b6001600160a01b0383166103dc57604051634a1406b160e11b81526000600482015260240161030b565b6001600160a01b038085166000908152600160209081526040808320938716835292905220829055801561032357826001600160a01b0316846001600160a01b03167f8c5be1e5ebec7d5bd14f71427d1e84f3dd0314c0f7b2291e5b200ac8c7c3b9258460405161044f91815260200190565b60405180910390a350505050565b6001600160a01b03831661048857806002600082825461047d91906106e6565b909155506104fa9050565b6001600160a01b038316600090815260208190526040902054818110156104db5760405163391434e360e21b81526001600160a01b0385166004820152602481018290526044810183905260640161030b565b6001600160a01b03841660009081526020819052604090209082900390555b6001600160a01b03821661051657600280548290039055610535565b6001600160a01b03821660009081526020819052604090208054820190555b816001600160a01b0316836001600160a01b03167fddf252ad1be2c89b69c2b068fc378daa952ba7f163c4a11628f55a4df523b3ef8360405161057a91815260200190565b60405180910390a3505050565b600060208083528351808285015260005b818110156105b457858101830151858201604001528201610598565b506000604082860101526040601f19601f8301168501019250505092915050565b80356001600160a01b03811681146105ec57600080fd5b919050565b6000806040838503121561060457600080fd5b61060d836105d5565b946020939093013593505050565b60008060006060848603121561063057600080fd5b610639846105d5565b9250610647602085016105d5565b9150604084013590509250925092565b60006020828403121561066957600080fd5b610672826105d5565b9392505050565b6000806040838503121561068c57600080fd5b610695836105d5565b91506106a3602084016105d5565b90509250929050565b600181811c908216806106c057607f821691505b6020821081036106e057634e487b7160e01b600052602260045260246000fd5b50919050565b8082018082111561024c57634e487b7160e01b600052601160045260246000fdfea26469706673582212201cd1adfeee22d701cbb0afd2b274078a2d5571f4c0bb7d9caf8965f9dc1fae9664736f6c63430008140033",
  "linkReferences": {},
  "deployedLinkReferences": {}
}